:020000040800F2
:1000000060050020A10100081D1F0008B71C0008A2
:10001000191F0008F10500087D27000800000000F6
:100020000000000000000000000000005520000853
:10003000F505000800000000211F000857200008F7
:10004000BB010008BB010008BB010008BB010008A0
:10005000BB010008BB010008BB010008BB01000890
:10006000BB01000803060008BB010008BB01000833
:10007000BB010008BB010008BB010008BB01000870
:10008000BB010008BB010008BB010008BB01000860
:10009000BB010008BB010008BB010008BB01000850
:1000A000BB010008BB010008BB010008BB01000840
:1000B000BB010008BB010008BB010008BB01000830
:1000C000BB010008BB010008BB010008BB01000820
:1000D000BB0100085D270008BB0100086D27000870
:1000E000F7050008BB010008BB0100083921000822
:1000F000BB010008BB010008BB010008BB010008F0
:10010000BB010008BB01000829210008BB01000851
:10011000BB010008BB010008BB010008BB010008CF
:10012000BB010008BB010008BB010008BB010008BF
:10013000BB0100080000000000000000BB01000837
:10014000BB010008BB010008BB010008BB0100089F
:10015000BB010008BB010008BB010008BB0100088F
:10016000BB010008BB010008BB010008BB0100087F
:10017000BB010008BB0100080000000000000000F7
:10018000BB010008BB010008DFF810D000F01EFA28
:100190000048004739280008AFF3008060050020C0
:1001A0000648804706480047FEE7FEE7FEE7FEE711
:1001B000FEE7FEE7FEE7FEE7FEE7FEE715210008A3
:1001C000890100082DE9F05F0546002092469B4614
:1001D00088460646814640241BE02846414647465D
:1001E000224600F04FF953465A46C01A914110D3A7
:1001F00011461846224600F036F92D1A67EB010821
:100200004F4622460120002100F02DF917EB00098E
:100210004E41201EA4F10104DFDC484631462A4647
:100220004346BDE8F09FD2B201E000F8012B491E21
:10023000FBD270470022F6E710B513460A46044683
:100240001946FFF7F0FF204610BD2DE9FE4F81EA69
:10025000030404F0004421F0004100944FF0000B2F
:1002600023F0004350EA01045ED052EA03045BD05D
:10027000C3F30A54C1F30A552C44A4F2F334019495
:10028000A0FB0254C1F3130141F48011C3F3130323
:1002900043F4801301FB024400FB034E840A970AD7
:1002A00044EA815447EA8357A4FB076802958D0A04
:1002B00005FB07854FEA932C04FB0C542705029D90
:1002C0004FEA065847EA1637B5EB08056EEB070C00
:1002D000870E920E47EA811742EA8312A7FB0201BA
:1002E000B6EB0B0164EB00042B0D43EA0C335E18F4
:1002F00044EB1C50DA465146E7FB0201C5F31304F8
:100300004FEA0B3343EA14534FEA0432019C43EAA9
:100310000603A4F10C040294009CCDE900B400F0A3
:1003200007F903B0BDE8F08F00200146F9E72DE999
:10033000F04D81EA030404F0004B21F0004514461F
:100340004FF0000A23F0004150EA050220D054EAA1
:1003500001021DD0C5F30A570246C5F31303C1F3CA
:100360001300C1F30A5640F4801543F48013A7EB41
:100370000608101BD64608F2FD3873EB050002D3C1
:1003800008F1010801E092185B41B8F1000F03DAAF
:1003900000200146BDE8F08D00204FF48011064694
:1003A00084460EE0171B73EB050705D3121B63EBA6
:1003B000050306434CEA010C49084FEA3000921845
:1003C0005B4150EA0107EDD152EA030012D082EA04
:1003D000040083EA0501084305D0101BAB4106D297
:1003E0000122002306E000224FF0004302E06FF0FC
:1003F000010253101AEB06004CEB085110EB0A00F7
:1004000041EB0B01BDE8F04D00F083B80EB5C10F14
:1004100080EAE0700844CA07002140F233438DE8C7
:100420000E000A460B4600F083F803B000BD01F051
:10043000004330B421F0004150EA010206D00A0D19
:10044000A2F56072C1F31301002A02DC30BC002067
:100450007047440F44EAC104C100E01830BC00EB0F
:10046000C25000F01FB8202A04DB203A00FA02F143
:10047000002070479140C2F1200320FA03F3194392
:1004800090407047202A04DB203A21FA02F0002134
:10049000704721FA02F3D040C2F120029140084394
:1004A000194670470029A8BF7047401C490008BF83
:1004B00020F00100704710B4B0FA80FC00FA0CF094
:1004C00050EA010404BF10BC704749B1CCF12004CC
:1004D00021FA04F411FA0CF118BF01212143084359
:1004E000A3EB0C01CB1D4FEA00614FEA102042BF85
:1004F000002010BC704700EBC35010440029A4BF7B
:1005000010BC7047401C490008BF20F0010010BC1F
:10051000704710B5141E73F1000408DA401C41F155
:10052000000192185B411A4301D120F0010010BD77
:100530002DE9F04D92469B4611B1B1FA81F202E0ED
:10054000B0FA80F220329046FFF78DFF04460F4646
:1005500040EA0A0041EA0B0153465A46084313D0C9
:10056000114653EA010019D0C8F140025046FFF786
:1005700089FF05460E46504659464246FFF773FF2F
:10058000084305D0012004E020463946BDE8F08D3F
:100590000020054346EAE0762C4337430A9863057A
:1005A000E40AA0EB08000022FD0A44EA47540A309E
:1005B00002D500200146E9E7010510196941DDE98E
:1005C000084500196941BDE8F04DA2E7064C074D0A
:1005D00006E0E06840F0010394E807009847103413
:1005E000AC42F6D3FFF7D4FDD0280008F02800086D
:1005F00000BFFEE7704710B54FF4005000F082F8DE
:1006000010BD10B5082000F07DF810BD72B600BF17
:10061000FEE770B50446A56D00F08AF9064694F829
:100620003500022808D08020606500BF002084F8D3
:10063000340000BF012070BD2068006820F0160063
:10064000216808602068406920F0800021684861C6
:10065000206C08B9A06C28B12068006820F0080060
:10066000216808602068006820F0010021680860A7
:1006700010E000F05DF9801B05280BD92020606593
:10068000032084F8350000BF002084F8340000BF48
:100690000320D0E72068006800F001000028E8D1BE
:1006A00094F85C103F208840A860012084F8350051
:1006B00000BF002084F8340000BF00BFBBE7014644
:1006C00091F83500022803D080204865012070474A
:1006D000052081F835000868006820F001000A68EC
:1006E00010600020F3E7000010B50446B4F5005F89
:1006F00004D14FF40051024801F014FC10BD000079
:100700000004024010B5044604480068204020B1AF
:10071000024804602046FFF7E7FF10BD143C01408B
:10072000F8B502460B460025002400200021D6E043
:10073000012606FA01F51E6806EA0504AC4274D1EA
:100740001E7906F00306012E04D01E7906F003067A
:10075000022E13D190684F000326BE40B0434F00D5
:10076000DE68BE4030439060506801268E40B04342
:100770001E79C6F300168E40304350601E7906F095
:100780000306032E09D0D0684F000326BE40B043B5
:100790004F009E68BE403043D0601E7906F00306CD
:1007A000022E13D1CF0802F1200656F827004E077B
:1007B000F70E0F26BE40B0434F07FF0E1E69BE4026
:1007C0003043CF0802F1200646F8270010684F009A
:1007D0000326BE40B0431E7906F003064F00BE401C
:1007E000304310605E6806F44036002E76D000BFBD
:1007F000002600963C4E366846F480463A4F3E60EE
:100800003E46366806F48046009600BF00BF374E6D
:100810008F0856F827008E07370F0F26BE40B043CB
:10082000334EB24202D1002624E057E0314EB242AC
:1008300001D101261EE0304EB24201D1022619E05C
:100840002E4EB24201D1032614E02D4EB24201D108
:1008500004260FE02B4EB24201D105260AE02A4EB3
:10086000B24201D1062605E0284EB24201D1072648
:1008700000E008268F073F0FBE4030431B4E8F0815
:1008800046F82700224E3068A0435E6806F48016C2
:1008900006B120431E4E3060361D3068A0435E68AE
:1008A00006F4001606B12043194E361D3060184E6E
:1008B000361F3068A0435E6806F4003606B1204358
:1008C000134E361F3060361F3068A0435E6806F452
:1008D000803606B120430E4E083E3060491C102978
:1008E000FFF426AFF8BD000044380240083801404C
:1008F000000002400004024000080240000C0240D8
:10090000001002400014024000180240001C024087
:10091000083C0140024613690B400BB1012000E086
:10092000002070470AB1816101E00B0483617047C8
:100930000148006870470000040000200348006878
:100940000349097808440149086070470400002001
:100950000C00002010B50D48006840F400700B49F1
:1009600008600846006840F4806008600846006837
:1009700040F480700860032000F0A6F80F2000F01B
:1009800007F800F02BF8002010BD0000003C0240EA
:1009900070B504460E4800784FF47A71B1FBF0F060
:1009A0000C490968B1FBF0F5284600F02FFC08B1AE
:1009B000012070BD102C07D200222146501E00F0ED
:1009C00045F80548046001E00120F2E70020F0E767
:1009D0000C000020100000200800002008B500BF17
:1009E000002000900E48006840F480400C490860E8
:1009F0000846006800F48040009000BF00BF00BFC0
:100A000000200090081F006840F08050091F086017
:100A10000846006800F08050009000BF00BF08BD8D
:100A2000443802400146084600280DDB00BF00BFE5
:100A300000F01F0301229A4043099B0003F1E023C9
:100A4000C3F8002100BF00BF00BF70472DE9F05F71
:100A500080460D461646002701F092FE07463946AD
:100A60002A46334601F00700C0F1070ABAF1040F25
:100A700002D94FF0040A01E0C0F1070AD14600F1A3
:100A8000040ABAF1070F02D24FF0000A01E0A0F108
:100A9000030AD4464FF0010A0AFA09FAAAF1010A38
:100AA0000AEA020A0AFA0CFA4FF0010B0BFA0CFBE5
:100AB000ABF1010B0BEA030B4AEA0B04214640465B
:100AC00001F066FEBDE8F09F00BF00F00702064B94
:100AD00019684FF6FF031940044B0B4343EA022108
:100AE000014B196000BF70470CED00E00000FA05F3
:100AF00070B504460D460CB9012070BD5848006819
:100B000000F00700A84209D255490D700846006858
:100B100000F00700A84201D00120EEE7207800F0A5
:100B2000020002281DD1207800F00400042805D11D
:100B30004C48006840F4E0504A490860207800F0D2
:100B40000800082805D14748006840F4604045493E
:100B500008604448006820F0F000A168084341495B
:100B60000860207800F00100A8B36068012807D170
:100B70003C4808380068C0F34040B8B90120BCE7E1
:100B80006068022802D06068032807D13548083819
:100B90000068C0F3406048B90120AEE7314808382A
:100BA0000068C0F3400008B90120A6E72D4800689E
:100BB00020F00300616808432A490860FFF7B8FE87
:100BC000064609E0FFF7B4FE801B41F288318842F7
:100BD00002D9032091E707E02248006800F00C00EA
:100BE0006168B0EB810FEDD11D48006800F007008F
:100BF000A84209D91A490D700846006800F007009C
:100C0000A84201D0012078E7207800F004000428F1
:100C100007D11448006820F4E050E1680843114906
:100C20000860207800F00800082808D10D48006806
:100C300020F46040216940EAC1000A49086000F0E0
:100C40003FF808490968C1F30311074A515CC840DD
:100C50000649086006480068FFF79AFE00204CE746
:100C6000003C024008380240B8280008100000206C
:100C700008000020014800687047000010000020B4
:100C800000B5FFF7F7FF04490968C1F38221034A61
:100C9000515CC84000BD000008380240C828000868
:100CA00000B5FFF7E7FF04490968C1F34231034A81
:100CB000515CC84000BD000008380240C828000848
:100CC0002DE9F047002400250026A14625480068AC
:100CD00000F00C0020B1042805D008283AD105E026
:100CE000DFF8849039E0DFF8849036E01D48001F7B
:100CF000006800F03F041B48001F006800F48000FB
:100D000078B11A481749091F0968C1F38811A0FB77
:100D100001700146224600233846FFF753FA054684
:100D20000EE011480F49091F0968C1F38811A0FBA3
:100D300001700146224600233846FFF743FA054674
:100D40000848001F0068C0F30140401C4600B5FB86
:100D5000F6F902E0DFF8109000BF00BF4846BDE89A
:100D6000F0870000083802400024F40040787D013C
:100D7000F8B504460CB90120F8BD207800F0010058
:100D8000002874D0F948006800F00C0004280DD049
:100D9000F648006800F00C00082813D1F348001F43
:100DA000006800F48000B0F5800F0BD1EF480838E0
:100DB0000068C0F34040002859D06068002856D130
:100DC0000120D9E700BF6068B0F5803F08D1E7484F
:100DD0000838006840F48030E449083908601EE0B3
:100DE0006068B0F5A02F0DD1E0480838006840F4E5
:100DF0008020DE49083908600846006840F48030E9
:100E000008600CE0D9480838006820F48030D749E1
:100E1000083908600846006820F48020086000BF98
:100E2000606890B1FFF784FD054606E0FFF780FD9E
:100E3000401B642801D903209EE7CC48083800688D
:100E4000C0F340400028F1D011E0FFF771FD0546E6
:100E500006E0FFF76DFD401B642801D903208BE7F6
:100E6000C24808380068C0F340400028F1D120781B
:100E700000F0020002285FD1BC48006800F00C00BE
:100E800058B1BA48006800F00C0008281CD1B748D7
:100E9000001F006800F48000B0B9B448083800684A
:100EA000C0F3400020B1E068012801D0012063E7D1
:100EB000AE480838006820F0F800216940EAC10017
:100EC000AA490839086037E0E06800B30120A84962
:100ED0000860FFF72DFD054606E0FFF729FD401BE2
:100EE000022801D9032047E7A04808380068C0F36A
:100EF00040000028F1D09D480838006820F0F80034
:100F0000216940EAC10099490839086014E00020CD
:100F100097490860FFF70CFD054606E0FFF708FD5E
:100F2000401B022801D9032026E7904808380068B2
:100F3000C0F340000028F1D1207800F00800082814
:100F40002CD16069A8B101208A490860FFF7F0FC44
:100F5000054606E0FFF7ECFC401B022801D9032000
:100F60000AE782486C300068C0F340000028F1D0E6
:100F700014E000207F490860FFF7DAFC054606E030
:100F8000FFF7D6FC401B022801D90320F4E677487E
:100F90006C300068C0F340000028F1D1207800F0E8
:100FA0000400042870D1002770483830006800F031
:100FB000805090B900BF002000906C483830006825
:100FC00040F080506949383108600846006800F0F8
:100FD0008050009000BF00BF01276748006800F400
:100FE0008070B0B96448006840F48070624908605D
:100FF000FFF79EFC054606E0FFF79AFC401B02281F
:1010000001D90320B8E65C48006800F4807000282D
:10101000F2D000BFA068012808D1544868300068A9
:1010200040F001005149683108601DE0A0680528C2
:101030000DD14E486830006840F004004B496831DB
:1010400008600846006840F0010008600CE047486E
:101050006830006820F001004449683108600846A3
:10106000006820F00400086000BFA068A8B1FFF786
:101070005FFC054609E0FFF75BFC401B41F288314D
:10108000884202D9032077E626E0384868300068B5
:10109000C0F340000028EED013E0FFF749FC0546FE
:1010A00008E0FFF745FC401B41F28831884201D936
:1010B000032061E62D4868300068C0F34000002836
:1010C000EFD1012F07D129483830006820F0805037
:1010D00026493831086000BFA069002845D0234860
:1010E000006800F00C0008285DD0A069022845D1F6
:1010F00000201F490866FFF71BFC054606E0FFF7C6
:1011000017FC401B022801D9032035E61748083890
:101110000068C0F340600028F1D1D4E9070108431A
:10112000616A40EA81110122A06AC2EB500041EAE3
:1011300000412C20005D41EA00600C49091F086055
:1011400001200B490866FFF7F3FB054606E0FFF7B1
:10115000EFFB401B022801D903200DE603480838A5
:101160000068C0F340600028F1D049E00838024030
:1011700000004742800E4742007000400020214995
:101180000866FFF7D5FB054606E0FFF7D1FB401BDD
:10119000022801D90320EFE51B480068C0F3406036
:1011A0000028F2D12CE0A069012800D1E4E516481E
:1011B000001D0668A069012820D006F48001E069BE
:1011C00081421BD106F03F01206A814216D147F6C9
:1011D000C0703040616AB0EB811F0FD106F440311E
:1011E0000122A06AC2EB5000B1EB004F06D106F01D
:1011F00070612C20005DB1EB006F01D00120BBE5D8
:101200000020B9E5000047420038024070B50446AE
:101210002546681EB0F1807F01D301200FE0681ED3
:101220004FF0E02148610F214FF0FF3001F0B0FA9C
:1012300000204FF0E021886107200861002070BD88
:101240007047704730B502460B4600BF92F83C002D
:10125000012801D1022030BD012082F83C0000BFEE
:10126000022082F83D00106844681068816824F00C
:1012700070041868044310684460184D1068A84250
:101280001BD01068B0F1804F17D0154D1068A842E0
:1012900013D0144D1068A8420FD0134D1068A84207
:1012A0000BD0124D1068A84207D0114D1068A8420B
:1012B00003D0104D1068A84205D121F08001586874
:1012C000014310688160012082F83D0000BF0020CA
:1012D00082F83C0000BF00BFBDE7000000000140F5
:1012E0000004004000080040000C004000040140E1
:1012F000004001400018004010B504460CB9012020
:1013000010BD94F83D0028B9002084F83C00204628
:1013100000F026F8022084F83D00211D206800F02E
:1013200013FF012084F8460000BF84F83E0001212D
:101330003F200155402001554120015500BF00BF0D
:10134000012084F8420043200155442001554520E6
:10135000015500BF012084F83D000020D0E70000C7
:1013600038B504461C492068884218D100BF0020C7
:1013700000901A48006840F00800184908600846C4
:10138000006800F00800009000BF00BF0022114676
:101390003220FFF75BFB3220FFF744FB1BE01049D4
:1013A0002068884217D100BF002000900B480068D9
:1013B00040F04000094908600846006800F040001D
:1013C000009000BF00BF002211462B20FFF73EFB1C
:1013D0002B20FFF727FB38BD000C004040380240AF
:1013E00000180040014691F83D00012801D001207D
:1013F0007047022081F83D000868C06840F0010095
:101400000B68D8601A4B086898421BD00868B0F186
:10141000804F17D0174B0868984213D0164B0868B6
:1014200098420FD0154B086898420BD0144B0868AF
:10143000984207D0134B0868984203D0124B0868B3
:1014400098420CD10868806800F00702062A0CD088
:101450000868006840F001000B68186005E0086843
:10146000006840F001000B6818600020C0E7000031
:10147000000001400004004000080040000C004053
:101480000004014000400140001800400146086887
:10149000C06820F001000A68D06000BF0868006AD8
:1014A00041F21112104050B90868006A92101040C1
:1014B00028B90868006820F001000A68106000BFC1
:1014C000012081F83D00002070472DE9F0410446DD
:1014D0000D46002700BF94F83C00012802D10220ED
:1014E000BDE8F081012084F83C0000BF022084F8B0
:1014F0003D002068866826F0770626F47F4620683F
:1015000086602868502833D00CDC202850D004DCBA
:1015100000284BD0102851D149E0302849D040282C
:101520004CD139E060282DD0702807D0B0F5805F0D
:1015300003D0B0F5005F41D10DE041E0D5E90213E1
:101540006A68206800F074FE2068866846F07706B6
:101550002068866034E0D5E902136A68206800F0EC
:1015600067FE2068806840F480402168886027E03A
:10157000EA686968206800F06FFE5021206800F07A
:1015800062FE1DE0EA686968206800F078FE60216C
:10159000206800F058FE13E0EA686968206800F0EF
:1015A0005BFE4021206800F04EFE09E000BF00BF56
:1015B00000BF2968206800F046FE01E0012700BF57
:1015C00000BF012084F83D0000BF002084F83C00EB
:1015D00000BF384684E7704770B504462068C56888
:1015E0002068066906F00200022819D105F0020001
:1015F000022815D1401F216808610120207720684A
:10160000806900F0030018B12046FFF7E4FF05E011
:10161000204600F097F8204600F095F8002020774B
:1016200006F00400042819D105F00400042815D19F
:10163000C04321680861022020772068806900F497
:10164000407018B12046FFF7C6FF05E0204600F0C5
:1016500079F8204600F077F80020207706F008009F
:10166000082819D105F00800082815D1C0432168C1
:101670000861042020772068C06900F0030018B1D9
:101680002046FFF7A8FF05E0204600F05BF8204663
:1016900000F059F80020207706F01000102819D12A
:1016A00005F01000102815D1C043216808610820FA
:1016B00020772068C06900F4407018B12046FFF719
:1016C0008AFF05E0204600F03DF8204600F03BF898
:1016D0000020207706F0010048B105F0010030B18C
:1016E0006FF0010021680861204600F02DF806F037
:1016F0008000802809D105F08000802805D1C043F2
:10170000216808612046FFF79BFD06F04000402855
:1017100009D105F04000402805D1C0432168086187
:10172000204600F023F806F02000202809D105F01B
:101730002000202805D1C043216808612046FFF71A
:1017400080FD70BD7047704710B50446054920689C
:101750000968884204D14FF48051034800F05AFCD4
:1017600010BD000078000020000402407047704760
:10177000704700002DE9F84F04462068056820688E
:10178000C668206847694FF00009CA4605F00F098E
:10179000B9F1000F0AD105F0200038B106F02000A1
:1017A00020B1204600F0CFFDBDE8F88FB9F1000F61
:1017B0007CD007F0010018B906F49070002875D0AD
:1017C00005F0010030B106F4807018B1606C40F093
:1017D0000100606405F0040030B107F0010018B1A9
:1017E000606C40F00200606405F0020030B107F068
:1017F000010018B1606C40F00400606405F008005E
:1018000048B106F0200010B907F0010018B1606C73
:1018100040F008006064606C002846D005F02000AD
:1018200028B106F0200010B1204600F08CFD2068A1
:101830004069C0F3801A606C00F0080010B9BAF17A
:10184000000F2DD0204600F038FD2068406900F0E0
:101850004000402820D100BF00BF2168143151E86A
:10186000001F21F040002168143141E80002002AE5
:10187000F3D100BFE06B50B17748E16B0865E06BD6
:10188000FEF71DFF88B1E06B016D88470DE0204633
:10189000FFF76EFF09E009E02046FFF769FF04E06B
:1018A0002046FFF765FF002060647DE7206B01287C
:1018B00078D105F01000002874D006F01000002840
:1018C000FAD000BF002000902068006800902068D7
:1018D0004068009000BF00BF2068406900F04000F1
:1018E000402860D1E06B006840681FFA80F8B8F1CA
:1018F000000F56D0A08D404553DDA4F82E80E06B3C
:10190000C069B0F5807F43D000BF00BF21680C31B3
:1019100051E8001F21F4807021680C3141E8000279
:10192000002AF3D100BF00BF00BF2168143151E885
:10193000001F21F001002168143141E80002002A53
:10194000F3D100BF00BF00BF2168143151E8001F70
:1019500021F040002168143141E80002002AF3D14F
:1019600000BF202084F842000020206300BF00BF99
:1019700021680C3151E8001F21F0100021680C3162
:1019800041E80002002AF3D100BFE06BFEF741FE00
:1019900002206063A08DE28D801A81B22046FFF79D
:1019A000E6FE01E742E0A08DE18D401A1FFA80F8C3
:1019B000E08DD0B3B8F1000F37D000BF00BF216871
:1019C0000C3151E8001F21F4907021680C3141E87E
:1019D0000002002AF3D100BF00BF00BF216814310C
:1019E00051E8001F21F001002168143141E8000294
:1019F000002AF3D100BF202084F842000020206399
:101A000000BF00BF21680C3151E8001F21F0100019
:101A100021680C3141E80002002AF3D100BF022006
:101A2000606341462046FFF7A2FEBDE605F0800058
:101A300030B106F0800018B1204600F019FEB3E680
:101A400005F0400030B106F0400018B1204600F02B
:101A50006AFCA9E600BFA7E6A722000810B5044665
:101A60000CB9012010BDA06900B100E000BF94F8DE
:101A7000410028B9002084F84000204600F02AF8F0
:101A8000242084F841002068C06820F400502168B8
:101A9000C860204600F0D6FC2068006920F4904021
:101AA000216808612068406920F02A0021684861A7
:101AB0002068C06840F400502168C860002060645D
:101AC000202084F8410084F842000020606300BFB9
:101AD000C8E7000010B586B00446142101A8FEF73F
:101AE000A9FB3F492068884239D100BF00200090FF
:101AF0003C48006840F010003A4908600846006819
:101B000000F01000009000BF00BF00BF0020009058
:101B100034481438006840F0010032491439086034
:101B20000846006800F00100009000BF00BF4FF4BD
:101B3000C0600190022002900020039003200490D6
:101B40000720059001A92848FEF7EAFD002211466A
:101B50002520FEF77BFF2520FEF764FF3EE02349AA
:101B6000206888423AD100BF002000901D48001F25
:101B7000006840F480201B49091F0860084600687F
:101B800000F48020009000BF00BF00BF0020009044
:101B900014481438006840F00400124914390860F1
:101BA0000846006800F00400009000BF00BF4FF43A
:101BB00040600190022002900020039003200490D6
:101BC0000720059001A90A48FEF7AAFD0022114648
:101BD0002720FEF73BFF2720FEF724FF06B010BDAD
:101BE000001001404438024000000240004800401C
:101BF0000008024070472DE9F84F04460E4617468C
:101C000099464FF0000A94F84100202850D106B1BF
:101C100017B90120BDE8F88F00206064212084F806
:101C20004100FEF785FE8246A784E784A068B0F5F0
:101C3000805F04D1206910B90025B04602E0354626
:101C40004FF000081EE05346002280212046CDF8C8
:101C5000009000F03DFD20B1202084F841000320D9
:101C6000D8E745B9B8F80000C0F30800216848601B
:101C700008F1020803E02878216848606D1CE08CB8
:101C8000401EE084E08C0028DDD153460022402134
:101C90002046CDF8009000F01BFD20B1202084F8F4
:101CA00041000320B6E7202084F841000020B1E77E
:101CB0000220AFE7704700BFFEE7000000B587B025
:101CC000142102A8FEF7B6FA00BF00200190434895
:101CD000006840F08000414908600846006800F054
:101CE0008000019000BF00BF00BF002001900846A7
:101CF000006840F0010008600846006800F001003C
:101D0000019000BF00BF00BF00200190084600689E
:101D100040F0020008600846006800F002000190F0
:101D200000BF00BF00BF002001900846006840F0DF
:101D3000040008600846006800F00400019000BF3D
:101D400000BF002204212648FEF7ECFD00224FF4DC
:101D500080512448FEF7E6FD042002900120039004
:101D6000022004900020059002A91D48FEF7D8FC2F
:101D7000082002904FF4441003900220049002A91E
:101D80001748FEF7CDFC4FF48050029001200390DD
:101D9000022004900020059002A91248FEF7C0FC22
:101DA0004FF4005002904FF444100390022004902E
:101DB00002A90C48FEF7B4FC002211460920FEF7E8
:101DC00045FE0920FEF72EFE002211462820FEF7D0
:101DD0003DFE2820FEF726FE07B000BD3038024049
:101DE00000000240000402401FB500200090019056
:101DF000029003900F48104908603120486000218C
:101E00000D48816041F28731C1600021016180216C
:101E10008161FFF771FA08B1FEF7F8FB4FF48050CB
:101E2000009069460448FFF750FB08B1FEF7EEFB4F
:101E30001FBD0000001800407800002000B587B0EA
:101E400000200390049005900690019002901448A1
:101E50001449086031204860002112488160491E01
:101E6000C160002101618161FFF746FA08B1FEF708
:101E7000CDFB4FF48050039003A90A48FFF725FBE0
:101E800008B1FEF7C3FB00200190029001A90548AC
:101E9000FFF7D8F908B1FEF7B9FB07B000BD0000A5
:101EA000000C00403000002010B50B480B490860C2
:101EB0004FF4E1304860002108488160C160016151
:101EC0000C21416100218161C161FFF7C7FD08B1AB
:101ED000FEF79CFB10BD000000100140C000002078
:101EE00010B50B480B4908604FF4165048600021AC
:101EF00008488160C16001610C214161002181615C
:101F0000C161FFF7ABFD08B1FEF780FB10BD00001B
:101F1000004800400801002000BFFEE700BFFEE7C8
:101F20007047000070B504460D4629462046FEF76E
:101F3000F1FC18B101200749087007E02946204646
:101F4000FEF7E8FC10B900200249087000F004F820
:101F500070BD00005001002010B52DED088B244805
:101F6000007810B1012811D10CE022480068406AC5
:101F70001F4948601F48FFF789FA00201D4909687A
:101F8000486204E01B48FFF72DFA00E000BF00BFE5
:101F900017494868FEF73AFA41EC1B0B9FED160B08
:101FA00053EC102BFEF7C3F941EC1A0B9FED140B09
:101FB00053EC102BFEF749F941EC190B9FED120B76
:101FC00053EC102BFEF7B3F941EC180BFEF72FFA88
:101FD000074988600846D0ED020AB0EE600A0C4856
:101FE00000F0F9FB024880ED030ABDEC088B10BD40
:101FF00050010020300000200000000080842E41AD
:10200000000000000040754000000000000000409B
:102010001400002070B504460D46012229462046D2
:10202000FEF780FC0A48FFF7DDF900BF08480068AA
:10203000406A1428FAD3002229462046FEF772FC93
:1020400000200349096848620148FFF71FFA70BD84
:1020500030000020704710B5FEF770FC10BD000086
:1020600000B593B0302107A8FEF7E4F8142102A8C8
:10207000FEF7E0F800BF002001902448006840F01F
:102080008050224908600846006800F080500190A6
:1020900000BF00BF00BF002001901D48006840F451
:1020A00080401B4908600846006800F480400190A9
:1020B00000BF00BF0220079001200A9010200B9063
:1020C00002200D9000210E9108210F9132211091D4
:1020D000022111910421129107A8FEF749FE08B1CF
:1020E000FEF794FA0F200290022003900020049043
:1020F0004FF48050059000200690012102A8FEF7C1
:10210000F7FC08B1FEF782FA13B000BD4038024078
:10211000007000400348006840F470000149086006
:102120007047000088ED00E010B50248FFF754FA50
:1021300010BD00003000002010B50248FFF74CFA37
:1021400010BD00007800002010B502682D4B9842A9
:102150000ED0B0F1804F0BD02B4B984208D02B4BB8
:10216000984205D02A4B984202D02A4B984203D17C
:1021700022F070024B681A43224B984220D0B0F1F3
:10218000804F1DD0204B98421AD0204B984217D038
:102190001F4B984214D01F4B984211D01E4B9842AF
:1021A0000ED01E4B98420BD01D4B984208D01D4BB1
:1021B000984205D01C4B984202D01C4B984203D148
:1021C00022F44072CB681A4322F080034C6943EA40
:1021D000040202608B68C3620B688362094B9842F9
:1021E00002D00C4B984201D10B6903630123436178
:1021F000036903F001031BB1036923F001030361C9
:1022000010BD000000000140000400400008004034
:10221000000C004000040140004001400044014027
:102220000048014000180040001C00400020004011
:1022300030B50C46816821F47F4142EA03252543ED
:102240002943816030BD0A46816821F0700142F067
:10225000070319438160704730B50B461446026A84
:10226000056A25F001050562816921F0F00141EA66
:10227000041122F00A021A438161026230BD30B5B6
:102280000B461446026A056A25F01005056281694D
:1022900021F4704141EA043122F0A00242EA031223
:1022A0008161026230BD70B50546AC6B0020E085EF
:1022B000E0842046FFF75CFA70BD00BF00BF0268F3
:1022C0000C3252E8002F22F4907102680C3242E87E
:1022D0000013002BF3D100BF00BF00BF026814320F
:1022E00052E8002F22F001010268143242E8001384
:1022F000002BF3D100BF016B01290ED100BF00BF3D
:1023000002680C3252E8002F22F0100102680C32F1
:1023100042E80013002BF3D100BF202180F84210C7
:1023200000210163704710B504462068C06820F0A2
:1023300040002168C860202084F841002046FFF753
:10234000B9FC002010BDF8B5044694F842002228DC
:1023500075D1A068B0F5805F0CD1206950B9002517
:10236000A66A20684068C0F308003080A06A801C1C
:10237000A06215E0A56A0026A068B0F5805F03D0D2
:10238000A06828B9206918B920684068287004E05E
:102390002068406800F07F002870A06A401CA0629E
:1023A000E08D401E80B2E085002846D12068C068DC
:1023B00020F020002168C8602068C06820F4807088
:1023C0002168C8602068406920F0010021684861E8
:1023D000202084F8420000206063206B012826D171
:1023E0000020206300BF00BF21680C3151E8001FAE
:1023F00021F0100021680C3141E80002002AF3D1DD
:1024000000BF2068006800F0100010280AD100BF4B
:1024100000200090206800680090206840680090CC
:1024200000BF00BFA18D2046FFF7A1F902E02046C2
:10243000FFF7E0FB0020F8BD01E00020FBE70220F1
:10244000F9E700002DE9F84F04462068006920F400
:102450004050E1680843216808612169A068084389
:1024600061690843E169084300902068C06849F247
:102470000C618843009908432168C860206840695E
:1024800020F44070A16908432168486176492068BA
:10249000884203D075492068884203D1FEF700FCCA
:1024A000814602E0FEF7ECFB8146E069B0F5004FA3
:1024B0006CD102206168A0FB015003461920A9FBE2
:1024C000007001462A463846FDF77CFE6421B0FBC9
:1024D000F1F04FEA001A02206168A0FB01510B469F
:1024E0001920A9FB00712A463846FDF76BFE83468A
:1024F00002206168A0FB015003461920A9FB00716E
:102500002A463846FDF75EFE6421B0FBF1F000EB91
:10251000C00101EB0010ABEB8000322101EBC000E9
:102520006421B0FBF1F000F0F8000AEB400A022051
:102530006168A0FB015003461920A9FB0070014609
:102540002A463846FDF73EFE834602206168A0FB1E
:10255000015003461920A9FB00712A463846FDF7B1
:1025600031FE6421B0FBF1F000EBC00101EB001083
:10257000ABEB8000322101EBC0006421B0FBF1F035
:1025800000F007005044216888606AE00420616818
:10259000A0FB015003461920A9FB007001462A4602
:1025A0003846FDF70FFE824604206168A0FB01500B
:1025B00003461920A9FB007001462A463846FDF75C
:1025C00001FE6421B0FBF1F000EBC00101EB001053
:1025D000AAEB8000322101EB00106421B0FBF1F086
:1025E00000F0F00A04206168A0FB01700346192086
:1025F000A9FB00513A462846FDF7E4FD6421B0FBF3
:10260000F1F00AEB001A04206168A0FB01510B46AF
:102610001920A9FB00712A463846FDF7D3FD8346F1
:1026200004206168A0FB015003461920A9FB00703B
:1026300001462A463846FDF7C5FD6421B0FBF1F09E
:1026400000EBC00101EB0010ABEB8000322101EB8D
:1026500000106421B0FBF1F000F00F00504421683D
:102660008860BDE8F88F00000010014000140140B0
:10267000014691F84100212828D18868B0F5805F93
:102680000BD1086948B90A6A1088C0F308000B68C2
:102690005860086A801C086205E00B6A581C0862D2
:1026A00018780B685860C88C401E80B2C88458B92E
:1026B0000868C06820F080000B68D8600868C068AF
:1026C00040F040000B68D860002070470220FCE713
:1026D0002DE9F84304460D4617469846089E31E01A
:1026E000701C70B3FEF724F9A0EB0800B04200D8CC
:1026F00016B90320BDE8F8832068C06800F0040024
:10270000F8B1802D1ED0402D1CD020680068C0F389
:10271000C000B0B100BF00200090206800680090A9
:1027200020684068009000BF00BF2046FFF7C5FD4D
:102730000820606400BF002084F8400000BF012032
:10274000D8E7FFE7206800682840A84201D10120AF
:1027500000E00020B842C3D00020CBE710B502480B
:10276000FFF708F810BD0000C000002010B50248B7
:10277000FFF700F810BD00000801002000BFFEE7D1
:1027800002480068C0F30220704700000CED00E032
:1027900010B5002804DB0A07130E054A135406E09F
:1027A0000A07140E034A00F00F031B1FD45410BD78
:1027B00000E400E018ED00E002E008C8121F08C1C4
:1027C000002AFAD170477047002001E001C1121FB2
:1027D000002AFBD17047F0EE400A90ED000A90ED20
:1027E000041A30EE010A80ED010A90ED010A90ED25
:1027F000051A30EE010A90ED011AC1EE001AC0ED83
:10280000031A90ED020A90ED031AD0ED021A70EE51
:10281000E11A01EE210A80ED020A90ED030AB7EEFB
:10282000001A31EE400A90ED011A20EE010A80ED07
:10283000000A90ED020A7047FEF78CF8FFF710FCD3
:10284000FFF73CFAFFF7FAFAFFF7CEFAFFF748FB7B
:10285000FFF72AFB1248FEF7C5FD20E0114890ED76
:10286000030ADFED110AB4EEE00AF1EE10FA06D227
:10287000FF2301220D490E48FFF7BDF90FE009487B
:1028800090ED030ADFED080AB4EEE00AF1EE10FA6B
:1028900005DDFF23012207490548FFF7ACF9DDE715
:1028A00078000020500100209A99193E0000002075
:1028B00008010020010000200000000000000000CE
:1028C00001020304060708090000000001020304D6
:1028D000F02800080000002030000000B8270008A1
:1028E000202900083000002030050000C82700081B
:1028F00002010000000000001000000001000000C4
:102900000024F4000AD7A33C0000000000000000EF
:102910000000000054E3A53DCDCCCC3D00000000FC
:040000050800018965
:00000001FF
