:020000040800F2
:1000000038050020A10100086B2400083119000800
:1000100069240008AD020008152A0008000000004D
:100020000000000000000000000000006F24000835
:10003000AF020008000000006D24000871240008D1
:10004000BB010008BB010008BB010008BB010008A0
:10005000BB010008BB010008BB010008BB01000890
:10006000BB010008BB010008BB010008BB01000880
:10007000BB010008BB010008BB010008BB01000870
:10008000BB010008BB010008BB010008BB01000860
:10009000BB010008BB010008BB010008BB01000850
:1000A000BB010008BB010008BB010008BB01000840
:1000B000BB010008BB010008BB0100084119000892
:1000C00035190008BB010008BB010008BB0100088E
:1000D000BB010008FD290008092A0008BB0100082F
:1000E000BB010008BB010008BB010008BB01000800
:1000F000BB010008BB010008BB010008BB010008F0
:10010000BB010008BB010008BB010008BB010008DF
:10011000BB010008BB010008BB010008BB010008CF
:10012000BB010008BB010008BB010008BB010008BF
:10013000BB0100080000000000000000BB01000837
:10014000BB010008BB010008BB010008BB0100089F
:10015000BB010008BB010008BB010008BB0100088F
:10016000BB010008BB010008BB010008BB0100087F
:10017000BB010008BB0100080000000000000000F7
:10018000BB010008BB010008DFF810D000F07CF8CC
:10019000004800479D2A0008AFF300803805002082
:1001A0000648804706480047FEE7FEE7FEE7FEE711
:1001B000FEE7FEE7FEE7FEE7FEE7FEE7F1240008C4
:1001C000890100082DE9F05F0546002092469B4614
:1001D00088460646814640241BE02846414647465D
:1001E000224600F041F853465A46C01A914110D3B6
:1001F00011461846224600F028F82D1A67EB010830
:100200004F4622460120002100F01FF817EB00099D
:100210004E41201EA4F10104DFDC484631462A4647
:100220004346BDE8F09FD2B201E000F8012B491E21
:10023000FBD270470022F6E710B513460A46044683
:100240001946FFF7F0FF204610BD202A04DB203AB4
:1002500000FA02F1002070479140C2F1200320FA19
:1002600003F3194390407047202A04DB203A21FA17
:1002700002F00021704721FA02F3D040C2F12002BF
:100280009140084319467047064C074D06E0E06868
:1002900040F0010394E8070098471034AC42F6D3CD
:1002A000FFF776FF242B0008442B0008FEE7704779
:1002B00072B6FEE72DE9F0410446876D00F062F961
:1002C000064694F835000025022806D08020606597
:1002D00084F834500120BDE8F0812068016821F0E5
:1002E000160101602068416921F080014161206CA4
:1002F00008B9A06C20B12068016821F008010160F4
:100300002068016821F0010101600CE000F03AF979
:10031000801B052807D920206065032084F835005C
:1003200084F83450D7E720680068C007EED194F80D
:100330005C103F208840B860012084F8350084F8C4
:1003400034500020C7E790F83510022903D08021EF
:10035000416501207047052180F83510006801686B
:1003600021F0010101600020704790F835007047CE
:1003700070B5044600F006F90546601C02D004483A
:100380000078044400F0FEF8401BA042FAD370BD90
:10039000000000202DE9F84FDFF8BCA10022012564
:1003A0000AF1040B03264FF00F090BF1040E00BFF6
:1003B0000B6805FA02F42340A34270D10F7907F0CD
:1003C0000307012F01D0022F16D187684FEA420898
:1003D00006FA08FC27EA0C07D1F80CC00CFA08FC56
:1003E0004CEA070CC0F808C04768A7430C79C4F36F
:1003F000001494403C4344600C79E443A4070AD0C1
:10040000C4684FEA420C06FA0CF7BC438F6807FA3F
:100410000CF72743C7600C7904F00304022C12D1B7
:10042000D40800EB840CDCF820405707FF0E09FAD3
:1004300007F824EA0804D1F8108008FA07F848EA17
:100440000408CCF8208004684FEA420C06FA0CF746
:10045000BC430F7907F0030707FA0CF7274307603F
:100460004C6814F4403F70D03C4C276847F48047F8
:100470002760246822F0030704F480440094384C79
:1004800007EB040CDCF8084897074FEA177809FADD
:1004900008F7BC43334FB84202D1002724E054E0B0
:1004A000314FB84201D101271EE0304FB84201D18F
:1004B000022719E02E4FB84201D1032714E02D4F37
:1004C000B84201D104270FE02B4FB84201D10527D4
:1004D0000AE02A4FB84201D1062705E0284FB8426A
:1004E00001D1072700E0082707FA08F72743CCF8CF
:1004F0000878DAF800405746D1F804C09C435FEA18
:10050000CC3C00D51C433C60DBF800405F46D1F892
:1005100004C09C435FEA8C3C00D51C433C60DEF881
:1005200000407746D1F804C09C435FEACC2C00D54C
:100530001C433C60084F0C373C68D1F804C09C4316
:100540005FEA8C2C00D51C433C60521C102AFFF43F
:100550002FAFBDE8F88F0000003C01404438024056
:100560000030014000000240000402400008024048
:10057000000C02400010024000140240001802402B
:10058000001C024001488068704700000000002005
:10059000704770472DE9F041016804464A694E688A
:1005A00090F83E000025D743FA0506D4F243D20561
:1005B00003D46FF4807201254A61B90508D4F14370
:1005C000C90505D422686FF4007145F00205516138
:1005D000790525D4F143C90522D4638D94F83D10E3
:1005E000226B202808D13BB9212910D029290ED00F
:1005F000282901D1212A0AD022686FF48061516133
:1006000045F00405102806D0402804D008E0204614
:1006100001F068FD04E02068016841F400710160A8
:10062000380508D4F043C00505D421686FF4006094
:1006300045F008054861002D07D0206C2843206450
:100640002046BDE8F04101F0DFB9BDE8F0812DE9B9
:10065000F047026800215368C66A90F83E4090F85F
:100660003D50102C12D0402C10D0046C002C7DD0AA
:100670005469E443A6077AD4DE43B60577D4036C05
:1006800003B19169BDE8F04701F008BD9769516970
:100690004FF42A0CC9435FEAC1784FF02A4904D0CD
:1006A00066452AD04E4528D010E0DE43B6050DD46D
:1006B000C16A614501D1012103E0C16A494501D107
:1006C0000821C162BDE8F04701F052BC0E0716D404
:1006D000DE43B60513D4416CC9B21161416B09B157
:1006E000C96B29B9816B002907D0C96B002904D0D7
:1006F0000068416841F400614160BDE8F0878E0701
:1007000006D4DE43B60503D4BDE8F04701F0A4BB30
:10071000FE43526876074FEA02521DD4002AECDBF2
:100720000A0608D4DA43520505D4490705D5BDE8C1
:10073000F04701F035BB4907DFD4D9438905DCD444
:10074000212D05D0402CD8D1BDE8F04701F056BC92
:10075000BDE8F04701F0E2BA002ACEDB4A060BD42E
:10076000DA43520508D4490708D501E00DE00EE050
:10077000BDE8F04701F05EBA4907BED4D943890508
:10078000BBD4BDE8F04701F0EBB9916970E7E10631
:1007900006D4D943890503D4BDE8F04701F0E4BC91
:1007A0002821212D27D0292D25D0650655D4DD43BC
:1007B0006D0552D4640752D590F83D30448D002C1D
:1007C0009BD01269446A2270426A521C4262428D76
:1007D000521E4285428D002A8FD12A2B8DD102686C
:1007E000536823F4806353602222026380F83D1033
:1007F00000F054F981E7250623D4DD436D0520D4AC
:10080000640720D590F83D30448D002CF2D0446A26
:1008100024781461426A521C4262428D521E428503
:10082000428D002AE6D1292BE4D10268536823F4D3
:10083000806353602122026380F83D1000F02FF99D
:100840005BE76107D6D4D9438905D3D4418D00290C
:10085000D0D0416A097811610AE06107CAD4D9434E
:100860008905C7D4418D0029C4D01169426A11702D
:10087000416A491C4162418D491E41853DE77047EF
:1008800070B5040025D094F83D00002520B984F807
:100890003C50204600F0BEF8242084F83D0020683B
:1008A000016821F0010101602068016841F4004104
:1008B00001602068016821F40041016000F024FA21
:1008C0004D4A6168914201D84C4900E04C49884248
:1008D00001D2012070BD4B492368B0FBF1F15E6885
:1008E00026F03F060E435E606368934206D94FF4DC
:1008F000967359434FF47A73B1FBF3F12368491CA3
:100900001E6A26F03F06314319626168914210D891
:100910004900401EB0FBF1F2521CC2F30B02042A44
:1009200001D2042022E0B0FBF1F0401CC0F30B0028
:100930001CE0A268F2B301EBC10303EB0116431EF6
:10094000B3FBF6F35B1C43F480431B0549D092B321
:1009500001EBC10202EB0111401EB0FBF1F0401CA3
:10096000C0F30B0040F4804040F400402168CA69A5
:100970004CF6FF739A431043C861D4E90710014352
:100980002068026822F0C00211430160D4E903012B
:1009900001432068826848F2FF339A431143816023
:1009A000D4E9050108432168CA6822F0FF02104318
:1009B000C86001E00EE016E02068016841F0010126
:1009C00001602564202084F83D00256384F83E50B2
:1009D000002070BD01EB4106431EB3FBF6F35B1C28
:1009E000B3E70120C2E701EB4101401EB0FBF1F08B
:1009F000401CC0F30B00B7E7A086010080841E00F6
:100A000000093D0040420F00704770477047704733
:100A10007047000010B586B0044614216846FFF701
:100A200009FC1B492068884230D11A48002102681D
:100A300042F002020260006800F002000590C0204F
:100A400000901220CDE901010320039004200490BE
:100A500069461148FFF79EFC0E481030016841F4CA
:100A6000001101600068002200F40010059011469A
:100A70001F2000F07DF81F2000F06CF800221146C6
:100A8000202000F075F8202000F064F806B010BDBA
:100A90000054004030380240000402407047704764
:100AA000024881680278114481607047000000208C
:100AB0000B4810B5016841F400710160016841F410
:100AC00080610160016841F480710160032000F0E1
:100AD0006FF80F2000F006F800F024F8002010BD99
:100AE000003C024070B50D4D04464FF47A712878F1
:100AF000B1FBF0F00A490968B1FBF0F000F00CFB23
:100B000048B9102C07D200222146501E00F030F8C0
:100B100000206C6070BD012070BD0000000000204E
:100B20000C0000200A4808B5016841F480410160CA
:100B3000006800F4804000900548001F016841F003
:100B400080510160006800F08050009008BD0000F6
:100B500044380240002809DB00F01F0201219140C7
:100B60004009800000F1E020C0F80011704700004B
:100B7000F0B40E4B1B680C46C3F30223C3F1070508
:100B8000042D00D90425191D072901D2002300E0F6
:100B9000DB1E012606FA05F1491E214099409E40C0
:100BA000761E16403143F0BC01F03EBF0CED00E074
:100BB000064900F0070208684FF6FF03184040EAB4
:100BC0000220034A10430860704700000CED00E06B
:100BD0000000FA052DE9F0470E46050065D0DFF864
:100BE0001481D8F80000F7B200F00700B04207D235
:100BF00088F80070D8F8000000F00700B04254D127
:100C000028683D4C810712D5400703D5206840F481
:100C1000E05020602878000703D5206840F4604049
:100C200020602068A96820F0F00008432060287840
:100C3000C0072DD0304968680839012812D0022831
:100C400013D0032811D00968890700292DDA2168FB
:100C500021F0030101432160FFF794FC814641F23A
:100C6000883A0EE009688903EFE709688901ECE733
:100C7000FFF788FCA0EB0901514502D90320BDE82C
:100C8000F0872068696800F00C00B0EB810FEFD1AD
:100C9000D8F80010404601F00701B14207D90770AB
:100CA000006800F00700B04201D00120E7E7287893
:100CB000400705D52068E96820F4E050084320602B
:100CC0002878000706D52068296920F4604040EAAA
:100CD000C100206000F038F82168084AC1F3031110
:100CE000515CC8400649086006480068FFF7FAFEF4
:100CF0000020C4E7003C0240083802400C2B0008EA
:100D00000C00002004000020044805490068096820
:100D1000044AC1F38221515CC84070470C00002096
:100D2000083802401C2B000804480549006809687F
:100D3000044AC1F34231515CC84070470C000020A6
:100D4000083802401C2B0008154810B5006810F048
:100D50000C02144813D01449042A0FD0082A0ED1CB
:100D60000F4C241F2268236802F03F025B0207D564
:100D70002068C0F38810A0FB010106E0084610BD02
:100D80002168C1F38811A1FB00010023FFF71AFAC3
:100D90002168C1F30141491C4900B0FBF1F010BDCD
:100DA000083802400024F40040787D012DE9F84F16
:100DB00004006ED02078DFF84C93C007A9F1040539
:100DC0004AD009F104000168C1F38101012908D06A
:100DD0000068C0F3810002280AD1D9F8000040025F
:100DE00006D52868800337D560680028E1D033E055
:100DF0006068B0F5803F10D0B0F5A02F286810D003
:100E000020F480302860286820F480202860606802
:100E1000A8B1FFF7B7FB06460DE0286840F4803024
:100E2000F4E740F480202860F7E700BFFFF7AAFB53
:100E3000801B642873D828688003F7D50CE0FFF77F
:100E4000A1FB064605E000BFFFF79CFB801B642862
:100E5000F0D828688003F7D42078DFF8AC828007C8
:100E60004FF0000A3ED5A748001D016811F00C0F95
:100E700008D00068C0F3810002280BD1D9F8000027
:100E8000400207D42868800716D5E068012800D101
:100E900012E033E1E068B8B10120C8F80000FFF7C4
:100EA00071FB064605E000BFFFF76CFB801B0228C4
:100EB000C0D828688007F7D52868216920F0F80095
:100EC00040EAC10028600DE0C8F800A0FFF75AFB17
:100ED000064604E0FFF756FB801B02281FD828684F
:100EE0008007F7D42078000722D5864F87486169AC
:100EF000703771B101210160FFF744FB064604E041
:100F0000FFF740FB801B022809D838688007F7D517
:100F10000EE0C0F800A0FFF735FB064605E082E0D2
:100F2000FFF730FB801B02287DD838688007F7D494
:100F30002078400768D5DFF8CCB100270BF13C0BD7
:100F4000DBF80000C0000BD4DBF8001041F080514A
:100F5000CBF80010DBF80000012700F08050009073
:100F60006B4E3068C00510D4306840F4807030603B
:100F7000FFF708FB009005E0FFF704FB0099401A1B
:100F8000022850D83068C005F6D55E4EA0686C3691
:100F900001280FD00528306810D020F00100306003
:100FA000306820F004003060A068B8B1FFF7EAFABA
:100FB00000900FE0306840F00100F4E740F00400DA
:100FC0003060F7E7FFF7DEFA0099411A41F2883006
:100FD000814266D830688007F4D50EE0FFF7D2FA78
:100FE000009007E0FFF7CEFA0099411A41F28830ED
:100FF000814256D830688007F4D42FB1DBF8001056
:1010000021F08051CBF80010A069C8B33D49091DFB
:101010000968C1F3810102294AD00228504607D04D
:10102000C8F8600000E03CE0FFF7ACFA04463BE0A3
:101030004746C8F86000FFF7A5FA064605E000BF7E
:10104000FFF7A0FA801B02282BD828688001F7D46C
:10105000D4E907010843A16A2E4A490802EB01417D
:10106000626A41EA8211084394F82C1040EA016157
:10107000C9F8001001203866FFF784FA044606E03C
:101080003EE000BFFFF77EFA001B022809D828685F
:101090008001F7D534E000BFFFF774FA001B022887
:1010A00002D90320BDE8F88F28688001F4D427E036
:1010B0000128F7D0D9F80000E26900F480019142DC
:1010C0001CD1226A00F03F01914217D147F6C0714E
:1010D000626A0140B1EB821F10D1A26A4FF0FF3368
:1010E00000F4403103EB5202B1EB024F06D194F809
:1010F0002C1000F07060B0EB016F01D00120D1E73F
:101100000020CFE70438024000004742800E4742EB
:10111000007000400000FFFF10B5401EB0F1807F5E
:1011200001D3012010BD4FF0E02460610F21601752
:1011300001F07AFC0020A06107202061002010BD92
:1011400070B590F83C20012A32D0012480F83C4050
:10115000022280F83D2003685A689D6822F07006DC
:101160000A6832435A60134B02689A4214D0B2F1B3
:10117000804F11D0104B9A420ED0104B9A420BD098
:101180000F4B9A4208D00F4B9A4205D00E4B9A4211
:1011900002D00E4B9A4204D1496825F080031943CE
:1011A000916080F83D40002180F83C10084670BDF9
:1011B000022070BD00000140000400400008004013
:1011C000000C0040000401400040014000180040B5
:1011D00010B5040003D094F83D0010B107E00120E1
:1011E00010BD002084F83C00204600F01FF80220CB
:1011F00084F83D00211D206801F082F9012084F867
:10120000460084F83E0084F83F0084F8400084F8EB
:10121000410084F8420084F8430084F8440084F8D4
:10122000450084F83D00002010BD000008B50068AE
:10123000B0F1804F08D10548016841F0010101601B
:10124000006800F00100009008BD00004038024036
:1012500070B5044690F83C000025012817D00126FF
:1012600084F83C60022084F83D002068826822F007
:10127000770222F47F4282600868502838D00DDC63
:1012800020284FD005DC90B3102811D14AE002206D
:1012900070BD302846D040280AD13BE060282FD0CE
:1012A00070280DD0B0F5805F03D0B0F5005F12D08C
:1012B000012584F83D60002084F83C00284670BD7C
:1012C000CB68D1E90121206801F08BF920688168A1
:1012D00041F0770109E0CB68D1E90121206801F0F4
:1012E00080F92068816841F480418160E1E719E07C
:1012F000CA684968206801F049FA5021206806E070
:10130000CA684968206801F052FA6021206801F03B
:1013100072F9CEE7CA684968206801F037FA4021BF
:101320002068F4E7226801461046F0E770B586B001
:10133000044614216846FEF77DFF2068B0F1804F17
:1013400028D115480024016841F0010101600168BD
:1013500001F001010591016841F00201016000689E
:10136000022500F00200059003200090CDE9015411
:101370000126CDE9034669460848FFF70BF84FF40C
:1013800040600090CDE90154CDE903466946044828
:10139000FFF700F806B070BD303802400000024090
:1013A0000004024070B5044690F83C0000260D464B
:1013B00001280FD0012084F83C006AB1042A1DD016
:1013C000082A2FD00C2A3FD00126002084F83C00A8
:1013D000304670BD022070BD206801F015F920680C
:1013E000816941F0080181612068816921F004016F
:1013F0008161206881692A69114311E0206801F048
:1014000033F92068816941F4006181612068816954
:1014100021F480618161206881692A6941EA0221A1
:101420008161D2E7206801F055F92068C16941F077
:101430000801C1612068C16921F00401C16120680F
:10144000C1692A69114311E0206801F077F9206829
:10145000C16941F40061C1612068C16921F4806102
:10146000C1612068C1692A6941EA0221C161ACE712
:1014700010B5040003D094F83D0010B107E001203E
:1014800010BD002084F83C00204600F01EF8022029
:1014900084F83D00211D206801F032F8012084F815
:1014A000460084F83E0084F83F0084F8400084F849
:1014B000410084F8420084F8430084F8440084F832
:1014C000450084F83D00002010BD704710B504466B
:1014D000022249B104290ED0082913D094F8410002
:1014E000012816D0012010BD94F83E000128F9D142
:1014F00084F83E200FE094F83F000128F2D184F8F0
:101500003F2008E094F840000128EBD184F8402007
:1015100001E084F841200122206801F055F81649C5
:101520002068164A884201D0904203D1436C43F4AC
:10153000004343642068884213D0B0F1804F10D03C
:101540000F4988420DD00F4988420AD00E4988427F
:1015500007D0904205D00D49884202D00C498842FC
:1015600004D1816801F00701062903D0016841F028
:1015700001010160002010BD000001400004014095
:101580000004004000080040000C00400040014002
:101590000018004070477047F8B5016804460868B5
:1015A000CA684B6910F00F0F4FF0000559D003F0D7
:1015B000010602F49077374365D0C10705D0D10505
:1015C00003D5216C41F001012164410705D5D907FC
:1015D00003D0216C41F002012164810705D5D907B0
:1015E00003D0216C41F004012164010707D502F00A
:1015F0002001314303D0216C41F008012164216CAA
:1016000000293AD0800604D5900602D5204601F084
:101610000FF920684069216CC0F38010090700D4DD
:1016200060B3204601F0DDF820684069400621D50E
:101630002068143050E8001F21F0400140E80012FB
:10164000002AF5D1A06BA8B16C490165A06BFEF72B
:101650007AFE002811D0A06B016D01B0BDE8F0400A
:10166000084783060FD593060DD52046BDE8F84000
:1016700001F0DEB82046FFF78EFFF8BD2046FFF7E9
:101680008AFF2564F8BD266B2023012E79D1C6067A
:1016900077D5D60675D50868486800904869400631
:1016A00040D5A16B086840680004000CEAD0A28D08
:1016B0008242E7D9E085C869B0F5807F2DD02068E7
:1016C0000C3050E8001F21F4807140E80012002A1D
:1016D000F5D12068143050E8001F21F0010140E8E6
:1016E0000012002AF5D12068143050E8001F21F0C4
:1016F000400140E80012002AF5D184F83E3025630D
:1017000020680C3050E8001F21F0100140E8001262
:10171000002AF5D1A06BFEF7CDFDA08DE18D401A1A
:1017200081B229E0A08DE18D401A81B2E08D0028C0
:10173000A8D00029A6D020680C3050E8002F22F451
:10174000907240E80026002EF5D12068143050E851
:10175000002F22F0010240E80026002EF5D184F887
:101760003E30256320680C3050E8002F22F0100234
:1017700040E80023002BF5D12046FFF70BFFF8BD12
:10178000FFE705062BD5150629D594F83D0021283D
:10179000F5D1A068B0F5805F01D12069B0B1206AB1
:1017A000411C2162216800784860E08C401E0004E2
:1017B000000CE084E3D12068C16821F08001C160A1
:1017C0002068C16841F04001C160D8E7206A008804
:1017D000C0F308004860206A801C2062E5E74006EC
:1017E000CDD55006CBD5CA68204622F04002CA604B
:1017F00084F83D3000F09BF8C1E70000D3270008D3
:1018000070B5040004D094F83D00002510B106E046
:10181000012070BD84F83C50204600F023F82420BD
:1018200084F83D002068C16821F40051C160204661
:1018300001F05EF82068016921F49041016120689F
:10184000416921F02A0141612068C16841F40051D9
:10185000C1602564202084F83D0084F83E0000200B
:1018600070BD0000F0B587B0044614216846FEF74D
:10187000E1FC2A4F23680022294902240325072678
:101880002848BB4221D1264B14331F6847F010076C
:101890001F601B6803F0100305930B6843F00103FE
:1018A0000B60096802AB01F0010105916902CDE905
:1018B000001483E864006946FEF76CFD00221146BF
:1018C0002520FFF755F9252023E0174FBB4222D1F1
:1018D000134B10331F6847F400371F601B6803F475
:1018E000003305930B6843F001030B60096802ABFA
:1018F00001F0010105910C21CDE9001483E8640099
:101900006946FEF747FD002211462620FFF730F911
:101910002620FFF71FF907B0F0BD000000100140BE
:1019200030380240000002400044004070477047D9
:10193000FEE700000148FEF72DBE00001400002065
:101940000148FEF784BE00001400002038B5806B0B
:10195000002190F83D202B4B46F2A8141B68B3FBE6
:10196000F4F3C3EBC30303EB830300933BB15B1EB0
:10197000009303681B689B0505D5009BF6E7036C85
:1019800043F020030364436B03B1D963836B03B15A
:10199000D96303681C6824F480641C604185436B30
:1019A00003B11965836B03B1196503681C6824F0E2
:1019B00001041C6090F83D402023602C0BD02824AB
:1019C00034EA02020FD080F83D3080F83E1000BFAC
:1019D000FEF755FF38BD80F83D3080F83E100164B9
:1019E000FEF7D6FD38BD0268136843F001031360AB
:1019F0000268136843F480631360016380F83D401C
:101A0000E6E700000C00002070B5044690F83D00A9
:101A100094F83E10102901D0402906D1222804D183
:101A200021680A6822F400620A60282131EA000273
:101A30004FF000054FF0200626D0216849680905BF
:101A400005D4602803D084F83D6084F83E502563B7
:101A500020684168090537D5416821F4006141607B
:101A6000606B90F835203C49012A11D00165606B0C
:101A7000FEF769FC38B32068016821F001010160BC
:101A800084F83D60606B1CE0256384F83D10DFE75F
:101A9000A06B0165A06BFEF756FCA0B12068416900
:101AA000C943490605D40069616A0870606A401C30
:101AB00060622068016821F00101016084F83D60E6
:101AC000A06B016D884710E094F83D10602910D09C
:101AD0004169C943490605D40069616A0870606AB2
:101AE000401C60622046FEF7CAFE206CC1071CD174
:101AF00015E084F83D6025644169C943490605D471
:101B00000069616A0870606A401C60622068016850
:101B100021F0010101602046FEF73AFDE5E781076B
:101B200003D4410701D4000704D52068416821F49B
:101B3000E061416094F83D00216C49070BD52828ED
:101B400009D10648E062256384F83D6084F83E5080
:101B50002046FEF759FF70BD4D1900080000FFFF39
:101B600010B5C26A438D0168042B06D0438D032B48
:101B700008D0438D022B1DD012E04A6822F4806207
:101B80004A600CE04B6823F480634B60042A06D063
:101B9000022A04D001680A6822F480620A6001689F
:101BA0000969426A1170416A491C4162418D491EAE
:101BB000418510BD012A30D0102A2ED0042A30D001
:101BC000022A2ED00A6842F400720A60016809698C
:101BD000426A1170416A491C4162428D521E42851F
:101BE000026812690A70416A491C4162418D491EAE
:101BF000418501684A6822F440724A60202180F8D9
:101C00003D1090F83E200021402A80F83E100CD074
:101C100012210163FEF7F9FE10BD0A6822F480620A
:101C2000D3E70A6842F48062CFE70163FEF7EFFE74
:101C300010BD000038B590F83D10222914D1418D17
:101C4000032912D901680969426A1170416A491C65
:101C50004162418D491E4185418D032904D10068AF
:101C6000416821F48061416038BDC26A022AFBD01C
:101C7000012901D00029F7D1274946F2A8130022F3
:101C80000968B1FBF3F101EB8101009101682023A8
:101C9000009C641E009422D00C68A405F8D40C6843
:101CA00024F480640C6001684C6824F4E0644C60A7
:101CB00001680969446A2170416A491C4162418D89
:101CC000491E418580F83D3090F83E1080F83E2056
:101CD00040291DD012210163FEF797FE38BD046C28
:101CE00044F0200404644C6824F4E0644C6001680F
:101CF0000969446A2170416A491C4162418D491E4B
:101D0000418580F83D3080F83E20FEF7B8FD38BDB3
:101D10000263FEF77CFE38BD0C00002010B5C26ADD
:101D200090F83D1021290BD1418D51B1416A0268D3
:101D300009781161416A491C4162418D491E418502
:101D400010BD20230021082A13D0202A11D012F51B
:101D5000803F0ED00268546824F4E064546011227D
:101D6000026380F83E1080F83D3000BFFEF74EFE63
:101D700010BD0268546824F4E0645460026814687A
:101D800044F400741460016380F83D3090F83E2004
:101D900080F83E10402AE9D1FEF73AFE10BD00005F
:101DA00010B590F83D1090F83E30C26A048DB4B181
:101DB000212903D0402B11D122290FD1418DE1B32C
:101DC00090F83E10402942D0416A026809781161BA
:101DD000416A491C4162418D491E418510BD21293E
:101DE000E8D120230021082A13D0202A11D012F58F
:101DF000803F0ED00268546824F4E06454601122DD
:101E0000026380F83E1080F83D3000BFFEF7FEFD13
:101E100010BD0268546824F4E064546002681468D9
:101E200044F400741460016380F83D3090F83E2063
:101E300080F83E10402AE9D100E002E0FEF7E8FD1C
:101E400010BD0068416821F48061416010BDBDE8AB
:101E5000104000F0D3B8000078B590F83E50C26A48
:101E6000036B90F83D6000240168222E7AD1066D44
:101E70000EB9402D76D0056D1DB90569B5F5404FF9
:101E800009D0458D05B3468D384D012E0ED0438DBA
:101E9000022B3AD05DE04A698A6900920A6842F4EE
:101EA00080720A60016D491C016578BDAA4213D198
:101EB0000A6822F480620A6001684A68120503D544
:101EC0000A6822F4806216E04A698A6900920A6808
:101ED00042F400720A6039E0082A10D0202A0ED09D
:101EE000122B0AD0042A03D0022A01D0102AE7D1EB
:101EF0000A6842F480620A6024E0012AE0D00A689D
:101F000022F480620A600168DEE7042A21D0022AF6
:101F10001FD0102A1DD00B6823F480630B6001686A
:101F20000B6843F400630B6001684B681B0509D51F
:101F3000AA4212D0012A10D0082A0ED0102A0CD0A2
:101F4000202A0AD001684A6989690091046578BD30
:101F500008E00B6843F48063E5E74A6842F4805286
:101F60004A60EFE7486988690090F0E70000FFFFEA
:101F700090F83E10402910D00169B1F5804F19D07A
:101F8000016DA9B3016D012910D1416C5FF0F1021F
:101F900001F4407142EAD11106E0016D0029416C63
:101FA00005D0C9B241F0010100680161704701F03C
:101FB000FE01F9E790F83D102129416C09D0C9B222
:101FC00041F0010102681161416B29B1C96B49B946
:101FD00002E001F0FE01F5E7816B0029E6D0C96B54
:101FE0000029E3D00068416841F400614160704716
:101FF000FFE7416CF02201F44071CBE710B590F897
:102000003D10026D22B3026D012A2FD0026D022A0B
:102010001DD122292FD0428D0AB1212933D0428DE2
:10202000002A14D1212912D101684A6822F4E06201
:102030004A6001680A6842F400720A600021016384
:10204000202280F83D2080F83E10FEF7E1FC10BD14
:10205000C16C0129816C02D0C1F3072108E002683C
:10206000C9B21161016D891C016510BD816CC9B2D5
:102070000268116104E001680A6842F480720A6033
:10208000016D491CF0E7416A026809781161416AF3
:10209000491C4162418D491E418510BD38B50C4631
:1020A00090F83D2000212825954302680B4605D075
:1020B00051699169009180F83C3038BD556825F42C
:1020C00080655560E243540700D50121120601D511
:1020D000828900E0028B80F83C3092B2FEF759FA18
:1020E00038BD00002DE9F04190F83D40C26A002360
:1020F00020261C4F01686FF48065082A01D0202A31
:1021000001D1282C04D0212C16D04D61BDE8F081DE
:10211000C7624A6822F4E0624A6001684D61016862
:102120000A6822F480620A60036380F83D6080F8E8
:102130003E30FEF769FCE9E7C7622122026380F8BE
:102140003D6080F83E304A6822F4E0624A600168EF
:102150004D6101680A6822F480620A60FEF79FFC04
:10216000D4E700000000FFFFF8B590F83D6004469A
:102170000068416821F4E061416020680025416900
:102180000091016841F0010101602068016821F4BB
:102190008061016020684168090520D5474F222EE3
:1021A00048D02A2E46D0616B096849686185618DE7
:1021B00019B1216C41F004012164416821F40061EE
:1021C0004160606BFEF7D1F8012808D0606B0765AD
:1021D000606BFEF7B8F810B1606B016D8847608DD9
:1021E00008B320684169C943490708D40069616A96
:1021F0000870606A401C6062608D401E60852068C7
:102200004169C943490608D40069616A0870606A77
:10221000401C6062608D401E6085608D18B1206C2E
:1022200040F004002064206C00B32046BDE8F84074
:10223000FFF7EABBA16B096849686185618D19B137
:10224000216C41F004012164416821F40061416086
:10225000A06BFEF78AF80128C1D0A06B0765A06BC0
:10226000FEF771F80028BAD0A06BB6E72A2E06D187
:102270002563282084F83D002046FEF70FFC94F8E3
:102280003D10202028290DD0216B222901D0222E9B
:1022900007D1256384F83D0084F83E502046FEF7C0
:1022A000FDFBF8BD0649E162256384F83D0084F832
:1022B0003E502046FEF7A8FBF8BD00004D1900086F
:1022C0000000FFFF094808B5016841F00101016005
:1022D000016801F001010091016841F00201016013
:1022E000006800F00200009008BD00003038024095
:1022F0000D4810B50B4901600C49416000214FF4B5
:1023000080428160C0E9031241618161C161016263
:10231000FEF7B6FA002803D0BDE81040FDF7C8BFAD
:1023200010BD00000054004014000020A0860100F1
:1023300010B58EB000240794089409940A940B9465
:102340001C2168460C94FDF775FF2A484FF0804128
:1023500001600F21C0E9011444F61F61C0E90314B4
:102360008461FEF735FF08B1FDF7A2FF4FF48050FE
:10237000079007A91F48FEF76BFF08B1FDF798FF0C
:102380001C48FFF775F808B1FDF792FF0B940BA9F5
:1023900018480C94FEF7D4FE08B1FDF789FF6020C1
:1023A000CDE9000402940022694612480494FEF725
:1023B000F9FF08B1FDF77CFF042269460D48FEF7DE
:1023C000F1FF08B1FDF774FF082269460948FEF7DE
:1023D000E9FF08B1FDF76CFF0C2269460548FEF7DE
:1023E000E1FF08B1FDF764FF0248FEF79FFF0EB062
:1023F00010BD0000680000200C4810B50A490160BB
:102400004FF416514160002181600C22C160C0E987
:1024100004128161C161FFF7F3F9002803D0BDE820
:102420001040FDF745BF10BD00100140B000002076
:102430000C4810B50A4901604FF4E13141600021B8
:1024400081600C22C160C0E904128161C161FFF7A3
:10245000D7F9002803D0BDE81040FDF729BF10BD13
:1024600000440040F4000020FEE7FEE7704770479C
:10247000FEF716BB10B592B030216846FDF7DAFEC4
:1024800014210CA8FDF7D6FE17480024016841F07E
:1024900080510160006800F080501190134801687D
:1024A00041F4804101600068069400F4804011907E
:1024B0000220009001200390102004906846FEF74F
:1024C00075FC08B172B6FEE70F20CDE90C040E943E
:1024D0000F9400210CA81094FEF77CFB002801D07B
:1024E00072B6FEE712B010BD4038024000700040E6
:1024F0000248016841F470010160704788ED00E016
:10250000F0B50268254C264D264E274F274B4FF03D
:10251000804CA04209D0604507D0A84205D0B04207
:1025200003D0B84201D0984204D122F0700E4A681C
:1025300042EA0E02A0421BD0604519D0A84217D033
:10254000B04215D0B84213D0984211D0184DA842CD
:102550000ED0184DA8420BD0174DA84208D0174DE9
:10256000A84205D0164DA84202D0164DA84203D16C
:1025700022F44075CA682A434D6922F080022A433A
:1025800002608A68C2620A688262A04201D09842F0
:1025900001D10969016301214161F0BD00000140E1
:1025A0000004004000080040000C0040000401400E
:1025B0000040014000440140004801400018004034
:1025C000001C00400020004010B501F01F03012155
:1025D000046A99408C430462016A9A401143016283
:1025E00010BD10B5846842EA032224F47F440A43F4
:1025F0002243826010BD826822F070020A4342F0DA
:102600000701816070470000F0B5026A22F0010204
:102610000262036A42688469124E24F073050C68F2
:102620002C4323F002058B682B430D4DA84201D0AB
:10263000B04205D123F00807CB683B4323F00403E5
:10264000A84201D0B04205D14D6922F44072154331
:102650008A692A4342608461496841630362F0BD2C
:102660000000014000040140F0B5026A22F01002AF
:102670000262026A436884690D6824F4E64444EA0D
:1026800005248D6822F0200242EA05120F4D104EFB
:10269000A84201D0B04206D1CF6822F0800242EABF
:1026A000071222F04002A84201D0B04207D14D6982
:1026B00023F4406343EA85038D6943EA850343605D
:1026C0008461496881630262F0BD0000000001403E
:1026D00000040140F0B5026A22F480720262026ACC
:1026E0004368C46922F4007224F073050C68124E2A
:1026F0002C438D6842EA05220E4DA84201D0B0421B
:1027000006D1CF6822F4006242EA072222F48062F6
:10271000A84201D0B04207D14D6923F4405343EAA7
:1027200005138D6943EA05134360C4614968C163B9
:102730000262F0BD000001400004014030B5026AB1
:1027400022F480520262046A4268C3690D6823F46D
:10275000E64343EA05238D6824F4005444EA053433
:10276000084DA84202D0084DA84204D14D6922F478
:10277000804242EA85124260C36149680164046292
:1027800030BD0000000001400004014010B5036AA4
:10279000046A24F001040462846924F0F00444EA29
:1027A000021423F00A020A438461026210BD10B5CC
:1027B000036A23F0100303628369046A23F47043FD
:1027C00043EA023224F0A00343EA0111826101626C
:1027D00010BD10B5806B0021C185C184FEF7DBFE02
:1027E00010BD01680C3151E8002F22F4907241E8CD
:1027F0000023002BF5D10168143151E8002F22F09D
:10280000010241E80023002BF5D1016B012909D118
:1028100001680C3151E8002F22F0100241E800233A
:10282000002BF5D1202180F83E1000210163704774
:1028300008B590F83E10222901D0022008BD826818
:102840004FF480539A4201D1016921B1816A9A42C1
:102850001BD04AB10AE00268816A5268C2F30802DA
:102860000A80816A891C08E0026972B102685268B4
:1028700002F07F020A70816A491C8162C18D491E83
:102880000904090CC18503D019E002685268F1E718
:102890000168CA6822F02002CA600168CA6822F48E
:1028A0008072CA6001684A6922F001024A612021EF
:1028B00080F83E10016B012903D0FFF737F80020A4
:1028C00008BD0021016301680C3151E8002F22F09E
:1028D000100241E80023002BF5D101680A68D206F6
:1028E00002D50A6849680091818DFEF753FEE6E73C
:1028F00070B5044600680169E26821F44051114353
:1029000001612169A068E2690843616911430843D4
:102910002168CA6849F20C639A430243CA6020687E
:102920004169A26921F44071114341613149206834
:10293000884202D03049884202D1FEF7F5F901E021
:10294000FEF7E2F9E2690023192164253226B2F587
:10295000004F626828D0A0FB0101930F9200FDF7A1
:1029600031FC0146B0FBF5F06FF01802504301EB6B
:10297000800006EB0010B0FBF5F000F0F002B1FBB8
:10298000F5F002EB0012B1FBF5F06FF018035843BD
:1029900001EB800006EB0010B0FBF5F000F00F003B
:1029A00021681044886070BDA0FB010192185B4152
:1029B000FDF708FC0146B0FBF5F00201B1FBF5F0B4
:1029C0006FF01803584301EB800006EBC000B0FB2A
:1029D000F5F000F0F80002EB4002B1FBF5F05843CF
:1029E00001EB800006EBC000B0FBF5F000F0070043
:1029F000D6E7000000100140001401400148FEF736
:102A0000CBBD0000B00000200148FEF7C5BD0000AE
:102A1000F4000020FEE70000014A024900F023B85C
:102A2000892A0008100000200907090E002804DB8D
:102A300000F1E02080F80014704700F00F0000F172
:102A4000E02080F8141D704702E008C8121F08C17A
:102A5000002AFAD170477047002001E001C1121F1F
:102A6000002AFBD170472DE9F04116460F46044677
:102A7000002503E03946B047641C6D1C207800280F
:102A8000F8D12846BDE8F08138B504468DF800003D
:102A900069460320ABBE204638BD0000FEF708F8AB
:102AA000FFF7E8FCFFF70EFCFFF7A6FCFFF740FC82
:102AB000FFF7BEFCFFF71CFC00211148FEF706FDE6
:102AC00004210F48FEF702FD08210D48FEF7FEFC29
:102AD0000C210B48FEF7FAFC094C42F2107644F642
:102AE0001F651E20FDF744FC20684663206885634F
:102AF0002068C6632068056402A0FFF78DFFF0E739
:102B0000680000206A6F6B65720D0A00000000000B
:102B1000000000000102030406070809000000008D
:102B200001020304442B00080000002014000000F0
:102B3000482A0008582B0008140000202405000033
:102B4000582A0008010000001000000000000000EA
:082B50000024F4000000000065
:040000050800018965
:00000001FF
